:100000000C943A000C9457000C9457000C94570031
:100010000C9457000C9457000C9457000C94570004
:100020000C9457000C9457000C9457000C945700F4
:100030000C9457000C9457000C9457000C945700E4
:100040000C9457000C9457000C9457000C945700D4
:100050000C9457000C9457000C9457000C945700C4
:100060000C9457000C9457000C9457000C945700B4
:100070000C94570011241FBECFEFD4E0DEBFCDBFDC
:1000800013E0A0E0B1E0E4EFF0E102C005900D92D2
:10009000A637B107D9F723E0A6E7B3E001C01D9268
:1000A000A039B207E1F70E94A4060C9478080C94DA
:1000B00000000F931F93CF93DF93EB018A0122E09F
:1000C00030E0FC01318320830E94ED046A8180E0EE
:1000D0000E9499060E94E4000E948101F801918328
:1000E0008083688179818A81DF91CF911F910F91FF
:1000F0000C94910084EF91E00E94890688E391E0DE
:100100000E9408068FE00E94F80581E090E00C94C0
:10011000FE05FC0184E0808386E0818381E08283A8
:1001200008950F931F93CF93DF938B01C82F60E047
:1001300080910001909101010E9443046C2FD02F07
:10014000C12F802F912F0E944304CE019093000174
:1001500080930101DF91CF911F910F910895CF936B
:10016000DF93EC010E94AE0283E00E947C028823B0
:1001700029F08881823014F0815009C081E00E940A
:100180007C02882331F0888184301CF48F5F88835F
:1001900014C082E00E947C02882329F08981863085
:1001A00014F48F5F09C080E00E947C02882329F04C
:1001B0008981823014F081508983688179818A81B4
:1001C000DF91CF910C94910041E064E070E080E019
:1001D00090E00E944C0441E060E076E080E090E036
:1001E0000E944C040895EF92FF920F931F93CF93B8
:1001F000DF93092FC0E0D0E0E82EF12CC7010C2ED0
:1002000002C0959587950A94E2F780FF09C0409156
:10021000020164E09C2F9F5F792F80E00E944C04D4
:100220002196C630D10551F7C0E0D0E010E0C801FA
:100230000C2E02C0959587950A94E2F780FF09C0BD
:10024000409102018C2F8F5F682F76E090E00E9432
:100250004C042196C430D10551F79091020181E000
:10026000892780930201DF91CF911F910F91FF9019
:10027000EF900895EF92FF920F931F93CF93DF9328
:10028000092FC0E0D0E0E82EF12C9C2F9F5F970152
:100290000C2E02C0359527950A94E2F720FF03C083
:1002A0006091760301C061E080E00E9443042196E2
:1002B000C630D10551F7C0E0D0E010E08C2F8F5F41
:1002C00098010C2E02C0359527950A94E2F720FF7D
:1002D00003C06091760301C061E090E00E94430496
:1002E0002196C430D10551F79091760381E089279A
:1002F00080937603DF91CF911F910F91FF90EF9044
:100300000895CF93DF9380918400909185000E949F
:1003100045080E944008EC010E944008FC01CE0103
:100320006EE370E00E949D07282FCF016EE070E021
:100330000E949D07982F822FDF91CF910895FB0196
:10034000482F50E020E030E080E0BA01022E02C0E9
:10035000759567950A94E2F72F5F3F4F60FF09C0DC
:100360006181062E000C770B6217730711F412825D
:1003700081E02630310549F7492F50E020E030E098
:10038000BA01022E02C0759567950A94E2F72F5FB5
:100390003F4F60FF09C06081062E000C770B62178B
:1003A000730711F4128281E02430310549F7089572
:1003B000E1E6F0E080E880831082A89584B7877F2B
:1003C00084BFE0E6F0E08081886180831082089538
:1003D0001092800084E0809381001092850010923A
:1003E0008400089580918400909185000895AC0167
:1003F00080918400909185009C01241B350B283E40
:100400003340B0F708952091840030918500820F29
:10041000931F0C94F70181110DC0809177038823FD
:1004200029F09091780381E0892702C080E090E074
:100430008170089580E0089581110BC08091770349
:10044000811103C08091780302C080E090E0817048
:10045000089580E00895811103C080917703089585
:1004600080E00895811105C09091770381E089278C
:10047000089580E00895E7E7F3E08081818389B102
:10048000881F8827881F8083089557985F9808954C
:100490006230710519F170F46130710559F5FC0194
:1004A000FF2724A1392F3095922F932394A385A160
:1004B00083231DC06330710541F064307105D1F4B0
:1004C000FC01FF2784A1892B0FC0FC01FF2784A119
:1004D000892B84A385A19095892309C0FC01FF275E
:1004E00084A1292F2095822384A385A1892B85A30C
:1004F00081E0089580E00895E82FF0E0EE0FFF1FFF
:10050000E758FC4F8081882321F0918181E0892781
:1005100002C080E090E081700895E82FF0E0EE0FD7
:10052000FF1FE758FC4F8081811102C0818102C00A
:1005300080E090E081700895E82FF0E0EE0FFF1F5B
:10054000E758FC4F80810895E82FF0E0EE0FFF1F81
:10055000E758FC4F908181E0892708957F928F9220
:100560009F92AF92BF92CF92DF92EF92FF920F9342
:100570001F93CF93DF93C9E7D3E059E1C52E53E032
:10058000D52E66E0762E88818983F601019111913E
:100590006F015801BB24F50124A1E12EFF2485A1A0
:1005A00090E08E219F2130E02E213F21232B31F03E
:1005B000892B51F433E0832E912C0DC0892B41F40B
:1005C00088248394912C07C094E0892E912C03C039
:1005D00082E0882E912C64E070E0C8010E944802FD
:1005E00062E070E0C8010E944802872D8A95F1F709
:1005F000F50183A190E0E822F92281E0EF2809F0DB
:1006000080E08883B401C8010E9448022296F3E08A
:10061000C338DF0709F0B7CFDF91CF911F910F915A
:10062000FF90EF90DF90CF90BF90AF909F908F9012
:100630007F9008950895853098F4673088F421E01C
:1006400030E001C0220F6A95EAF7E82FF0E0EC579E
:10065000FC4F922F9095808189234111822B8083BA
:100660000895853080F4673070F421E030E001C0F7
:10067000220F6A95EAF7E82FF0E0EC57FC4F8081F3
:10068000282381E009F480E0089560918303E62F38
:10069000F0E0EC57FC4F80810E949303809183032C
:1006A0008F5F853018F4809383030895109283033D
:1006B0000895E4E8F3E0108211821282138214821A
:1006C00008950E9471030C9459039C01FC01FF27BB
:1006D00084A1832B84A395A1892F832B85A381E0FB
:1006E0000895CF93DF93CDE2D3E0899199910E9451
:1006F000650383E0CB33D807C1F783E090E40E9421
:10070000650380E090E80E94650383E090E10E9429
:10071000650383E090E80E94650383E090E2DF9147
:10072000CF910C946503E0918903F0E0EE0FFF1F79
:10073000ED5DFC4F20813181F901FF2795A1932BBD
:1007400095A3EDE2F3E097E020813181D901BB2749
:1007500095962C91959780FF03C03095232301C077
:10076000232B95962C938695915032969111ECCF30
:10077000E62FF0E0EE0FFF1FED5DFC4F80819181D1
:10078000FC01FF2785A19095892385A360938903A8
:100790000895009789F0FC012381621B67FD09C061
:1007A000062E000C770B248130E081E0621773077E
:1007B0000CF080E08170089580E00895CF93DF937E
:1007C000FC01892B79F18181481760F59281291705
:1007D00048F59381A62FA91BA7FD24C00A2E000C63
:1007E000BB0BC481D0E0AC17BD07E4F4622F0E94BC
:1007F0006F07480F858190E0BD010E94780706963B
:10080000242F269526952695E80FF91FE20FF11D56
:10081000808190E0477002C0959587954A95E2F7F0
:10082000817001C080E0DF91CF910895CF93DF9375
:10083000EC010E94E8019E0140E050E062E17AE7AD
:1008400080E090E00E94B10730938D0320938C03E9
:10085000DF91CF91089580918A0390918B030E943C
:10086000F70120918A0330918B0380918C03909142
:100870008D03820F931F90938B0380938A030895B7
:10088000692F0C94310341E0611101C040E0692FF0
:100890000C941B030C9443045F926F927F928F928F
:1008A0009F92AF92BF92CF92DF92EF92FF920F93FF
:1008B0001F93CF93DF93562E872E942E5C01E62E46
:1008C000F72EC62F660FDD0BC81BD10987FDD39508
:1008D000072F770F110B091B110997FD1395D7FFF0
:1008E00003C077247A9402C07724739417FF03C05F
:1008F00066246A9402C066246394D7FF03C0D1952E
:10090000C195D10917FF03C0119501951109C017B1
:10091000D107A4F06E01D594C794F92EA51411F156
:10092000692D8A2D9F2D0E944304C01AD10AD7FE3B
:1009300003C0CC0EDD1EF60CA70CF0CF6801D594D9
:10094000C794E82EB81471F0692D8E2D9B2D0E944E
:100950004304CC1ADD0AD7FE03C0C00ED11EE70C3B
:10096000B60CF0CF692DC701DF91CF911F910F9188
:10097000FF90EF90DF90CF90BF90AF909F908F90BF
:100980007F906F905F900C944304FF920F931F939E
:10099000CF93DF93D82FF92E162FC72F042F792F3F
:1009A0000E944C04402F6D2F7C2F8D2F9F2D0E9475
:1009B0004C04402F612F7C2F812F9F2D0E944C04CF
:1009C000402F612F7C2F8D2F9C2F0E944C04DF9194
:1009D000CF911F910F91FF9008950E945903E3E07A
:1009E000F1E0118A14860895DF92EF92FF920F933F
:1009F0001F93CF93DF93D82E7B01162F0F2D80915D
:100A0000050190910601D0E0019799F50F2D0D1B7E
:100A1000E0910B01F0910C018181C0E0D817B8F48E
:100A200080910B0190910C01FC012281C21768F4A6
:100A30002C2F4D2F6D2D0E94DE03682F8E2D8C0FD5
:100A4000902F0E944304CF5FEBCFDF5FDFCFE091B9
:100A50000B01F0910C018281C81740F460E08E2DEB
:100A60008C0F902F0E944304CF5FF1CF015030C014
:100A7000DF5F1E2D1D0FE0910B01F0910C018181B4
:100A8000C0E0D817A8F480910B0190910C01FC01F3
:100A90002281C21768F72C2F4D2F6D2D0E94DE0387
:100AA000682F812F9F2D9C0F0E944304CF5FEBCFB7
:100AB000E0910B01F0910C018281C81740F460E0D5
:100AC000812F9F2D9C0F0E944304CF5FF1CF1F5FAA
:100AD000812F902FDF91CF911F910F91FF90EF9079
:100AE000DF9008950F931F93CF938C01C0E0F8011E
:100AF00081918F01882341F00E94F404BC01CF5FF3
:100B0000853014F477FFF3CF8C2FCF911F910F9185
:100B100008950F931F93CF93DF9310920F0140938B
:100B200010011092130100910B0110910C0101159D
:100B3000110509F449C09B01EC01F8018181609124
:100B4000090170910A0190E00E947807BC01809130
:100B50000D0190910E010E948907CB016AE070E0BF
:100B60000E9478079093120180931101309308013D
:100B70002093070140E250E0BE0184E191E00E9431
:100B8000500880910301909104010197E9F4FE015E
:100B900001900020E9F73197BF016C1B7D0BF80134
:100BA00081818F5F0E946F078150209105013091F4
:100BB00006012130310511F095E001C097E098174A
:100BC00018F48EEF80931301DF91CF911F910F9155
:100BD000089520910501309106012130310511F071
:100BE00070E001C076E04FEF60E00E948905089553
:100BF00090E090930A018093090108959093040175
:100C00008093030108959093060180930501089550
:100C100090930C0180930B01089580918E03909125
:100C20008F03019690938F0380938E03209111017F
:100C3000309112018217930708F469C010928F0354
:100C400010928E03E0910F01F0E0ED5FFE4F81897D
:100C500081110AC080911001823008F458C081507F
:100C60008093100110920F0180910F0190E0FC0120
:100C7000ED5FFE4F2189222309F449C04091030111
:100C800050910401209113014115510521F041308B
:100C9000510599F024C0211122C060910701709183
:100CA00008018C5E9E4F0E94720590E00197909122
:100CB0000F01890F80930F0112C06091070170919D
:100CC000080140910501509106014130510511F490
:100CD000720F01C0621B8C5E9E4F0E947205809154
:100CE00013018F5F80931301082E000C990BE09184
:100CF0000B01F0910C01218130E0281739073CF4F9
:100D00001092130180910F018F5F80930F010C945B
:100D10004503CF93DF93C3E0D1E09B878A870E948E
:100D2000610384E190E09F838E83DF91CF910C94E7
:100D3000ED04811105C0662311F0429A089542988E
:100D400008953A9A429A0895CF93DF93CDB7DEB7CC
:100D500027970FB6F894DEBF0FBECDBF0E94D80113
:100D60000E94A10660E080E00E9499060E94450270
:100D70000E941A031092800085E0809381001092F7
:100D800082000E947A001D821C8284EF91E00E9402
:100D900016048BE393E00E94E905C12CD12C712C41
:100DA000E12CF12C00E010E0AA24A394B12C93E0F4
:100DB000892E912C662463940E942B048C819D8142
:100DC00081309105D9F048F08230910599F103976F
:100DD00009F082C0BD82AC827FC00E943B0280E0ED
:100DE0000E940B02882309F477C08EE593E00E94ED
:100DF000E905BD82AC82C12CD12C6EC00E943B02A1
:100E000080E00E940B02882309F466C0CE0101969F
:100E10000E948900AE014A5F5F4FBE016F5F7F4F46
:100E2000CE0104960E945900712CE12CF12C00E0B7
:100E300010E052C0CE0101960E94AF000F5F1F4F1D
:100E4000063A110540F0711006C08E819F810E9404
:100E50003A0100E010E08FEFE81AF80A8CEDE8168E
:100E600085E0F806F0F08E819F810E94F300F72C58
:100E7000F624772021F00E9481019F838E8385E0F4
:100E8000C816D10440F01D821C820E94ED0486E643
:100E900093E00E94E9058FEFC81AD80A7F2CE12C55
:100EA000F12C7720C9F0BE016F5F7F4F8E819F814B
:100EB0000E949F01882381F09D828C826B8180E05B
:100EC0000E9499068E819F810E94F3000E94ED048A
:100ED0008BE693E00E94E9050E940D066DCF002489
:100EE00080FD060E660F11F08695D1F7802D0895CE
:100EF0000024552704C0080E591F880F991F00971A
:100F000029F076956795B8F37105B9F7802D952F7F
:100F10000895AA1BBB1B51E107C0AA1FBB1FA61740
:100F2000B70710F0A61BB70B881F991F5A95A9F792
:100F300080959095BC01CD01089597FB072E16F47E
:100F4000009407D077FD09D00E94890707FC05D0DF
:100F50003EF4909581959F4F0895709561957F4FD0
:100F60000895052E97FB1EF400940E94C80757FDB4
:100F700007D00E94D00707FC03D04EF40C94C8079A
:100F800050954095309521953F4F4F4F5F4F0895B5
:100F900090958095709561957F4F8F4F9F4F0895E5
:100FA000A1E21A2EAA1BBB1BFD010DC0AA1FBB1F6D
:100FB000EE1FFF1FA217B307E407F50720F0A21BDF
:100FC000B30BE40BF50B661F771F881F991F1A944C
:100FD00069F760957095809590959B01AC01BD0176
:100FE000CF0108958F929F92AF92BF92CF92DF92DE
:100FF000EF92FF92CF93DF93EC01688179818A8130
:101000009B81611571058105910521F464E279EDFB
:101010008BE597E02DE133EF41E050E00E94B1070E
:1010200049015A0127EA31E440E050E00E945F089C
:101030006B017C012CEE34EF4FEF5FEFC501B40183
:101040000E945F08DC01CB018C0D9D1DAE1DBF1DF4
:10105000B7FF03C00197A109B04888839983AA8389
:10106000BB839F77DF91CF91FF90EF90DF90CF9080
:10107000BF90AF909F908F9008950E94F2070895BF
:1010800084E391E00E94F2070895A0E0B0E080932D
:10109000340190933501A0933601B0933701089540
:1010A000FB01DC014150504048F001900D920020BE
:1010B000C9F701C01D9241505040E0F70895EE2756
:1010C000FF27AA27BB2708C0A20FB31FE41FF51FE5
:1010D000220F331F441F551F969587957795679567
:1010E00098F37040A9F7009799F7BD01CF010895D3
:0410F000F894FFCFA2
:1010F40005070100000000000014000000000000CB
:1011040000000000000000000000000000000000DB
:1011140000000000000000000000000000000000CB
:101124000000000001000000010507205F05000029
:10113400000000C6186380014A290000004A7DF5BA
:101144009502C417471F01632222320626155193C4
:10115400058608000000880821080282208488008F
:10116400805457090080904F0800000060880000F8
:10117400800F00000000008C0100222202002EE6F5
:101184003AA303C4104288032E4244C4072E4207E4
:10119400A30388A9F411023F8407A3032E8617A38F
:1011A400033F424408012E4617A3032E460FA30310
:1011B400C018600C00C018608800888820080200ED
:1011C4007CF0010082208888002E424400012E42D7
:1011D4005BAB0344C51F63042FC617E3032E8610BD
:1011E400A2032FC618E3033F8417C2073F841742A4
:1011F400002E861EA30731C61F63048E1042880387
:10120400104218A3033195515204218410C207716E
:10121400D71A630471D61C63042EC618A3032FC601
:101224001742002EC65893052FC61763042E0607CF
:10123400A3039F1042080131C618A30331C6181531
:101244000131C65AAB02312AA26204312A42080192
:101254001F2222C207278410C20120088220000E08
:10126400218490034445000000000000C007822050
:101274000000000038E8A30721B419E30300B81004
:10128400A20310DA1CA30700B8F883034C8A238452
:1012940000C0C7E8A10321B41963040418428803F9
:1012A400083084920121A4324A0286104288030045
:1012B400AC5A630400B419630400B818A30300BC57
:1012C400F8420000D8EC210400B419420000B8E050
:1012D400E003421C21240300C418B30500C41815FC
:1012E4000100C45AAB02004445540400C4E8A103FD
:1012F400007C44C40788104108028410420801821B
:101304001044880000888A00000380034003200002
:10131400800310034000800310038003200040007A
:101324002000100008000400020001446F64676597
:10133400264461736821205072657373204275746A
:10134400746F6E20546F2053746172742100506165
:10135400747465726E0057494E210047616D6520B3
:061364004F7665722100C6
:00000001FF
